22:46:19.859367 IP (tos 0x0, ttl 64, id 6519, offset 0, flags [DF], proto UDP (17), length 116)
    127.0.0.1.49425 > 127.0.0.1.4739: [bad udp cksum 0xfe73 -> 0xbda9!] UDP, length 88
	0x0000:  0000 0000 0000 0000 0000 0000 0800 4500  ..............E.
	0x0010:  0074 1977 4000 4011 2300 7f00 0001 7f00  .t.w@.@.#.......
	0x0020:  0001 c111 1283 0060 fe73 000a 0058 692e  .......`.s...Xi.
	0x0030:  fbbb 0000 0001 0000 3039 0002 0028 0190  ........09...(..
	0x0040:  0008 0008 0004 000c 0004 0001 0008 0002  ................
	0x0050:  0008 7531 0001 7532 0001 7533 ffff 7534  ..u1..u2..u3..u4
	0x0060:  0001 0190 0020 7f00 0001 7f00 0001 0000  ................
	0x0070:  0000 0000 03e8 0000 0000 0000 000a 0000  ................
	0x0080:  0002                                     ..
22:46:20.888234 IP (tos 0x0, ttl 64, id 6762, offset 0, flags [DF], proto UDP (17), length 126)
    127.0.0.1.38074 > 127.0.0.1.4739: [bad udp cksum 0xfe7d -> 0x9991!] UDP, length 98
	0x0000:  0000 0000 0000 0000 0000 0000 0800 4500  ..............E.
	0x0010:  007e 1a6a 4000 4011 2203 7f00 0001 7f00  .~.j@.@.".......
	0x0020:  0001 94ba 1283 006a fe7d 000a 0062 692e  .......j.}...bi.
	0x0030:  fbbc 0000 0001 0000 3039 0002 0028 0190  ........09...(..
	0x0040:  0008 0008 0004 000c 0004 0001 0008 0002  ................
	0x0050:  0008 7531 0001 7532 0001 7533 ffff 7534  ..u1..u2..u3..u4
	0x0060:  0001 0190 002a 7f00 0001 7f00 0001 0000  .....*..........
	0x0070:  0000 0000 03e8 0000 0000 0000 000a 0000  ................
	0x0080:  0a41 4141 4141 4141 4141 4102            .AAAAAAAAAA.
